{
  "_format": "hh-sol-artifact-1",
  "contractName": "Create",
  "sourceName": "contracts/VotingContract.sol",
  "abi": [
    {
      "inputs": [],
      "stateMutability": "nonpayable",
      "type": "constructor"
    },
    {
      "anonymous": false,
      "inputs": [
        {
          "indexed": true,
          "internalType": "uint256",
          "name": "candidateId",
          "type": "uint256"
        },
        {
          "indexed": false,
          "internalType": "string",
          "name": "age",
          "type": "string"
        },
        {
          "indexed": false,
          "internalType": "string",
          "name": "name",
          "type": "string"
        },
        {
          "indexed": false,
          "internalType": "string",
          "name": "image",
          "type": "string"
        },
        {
          "indexed": false,
          "internalType": "uint256",
          "name": "voteCount",
          "type": "uint256"
        },
        {
          "indexed": false,
          "internalType": "address",
          "name": "_address",
          "type": "address"
        },
        {
          "indexed": false,
          "internalType": "string",
          "name": "ipfs",
          "type": "string"
        }
      ],
      "name": "CandidateCreate",
      "type": "event"
    },
    {
      "anonymous": false,
      "inputs": [
        {
          "indexed": true,
          "internalType": "uint256",
          "name": "voter_voterId",
          "type": "uint256"
        },
        {
          "indexed": false,
          "internalType": "string",
          "name": "voter_name",
          "type": "string"
        },
        {
          "indexed": false,
          "internalType": "string",
          "name": "voter_image",
          "type": "string"
        },
        {
          "indexed": false,
          "internalType": "address",
          "name": "voter_address",
          "type": "address"
        },
        {
          "indexed": false,
          "internalType": "uint256",
          "name": "voter_allowed",
          "type": "uint256"
        },
        {
          "indexed": false,
          "internalType": "bool",
          "name": "voter_voted",
          "type": "bool"
        },
        {
          "indexed": false,
          "internalType": "uint256",
          "name": "voter_vote",
          "type": "uint256"
        },
        {
          "indexed": false,
          "internalType": "string",
          "name": "voter_ipfs",
          "type": "string"
        }
      ],
      "name": "VoterCreated",
      "type": "event"
    },
    {
      "inputs": [],
      "name": "_candidateId",
      "outputs": [
        {
          "internalType": "uint256",
          "name": "_value",
          "type": "uint256"
        }
      ],
      "stateMutability": "view",
      "type": "function"
    },
    {
      "inputs": [],
      "name": "_voterId",
      "outputs": [
        {
          "internalType": "uint256",
          "name": "_value",
          "type": "uint256"
        }
      ],
      "stateMutability": "view",
      "type": "function"
    },
    {
      "inputs": [
        {
          "internalType": "uint256",
          "name": "",
          "type": "uint256"
        }
      ],
      "name": "candidateAddress",
      "outputs": [
        {
          "internalType": "address",
          "name": "",
          "type": "address"
        }
      ],
      "stateMutability": "view",
      "type": "function"
    },
    {
      "inputs": [
        {
          "internalType": "address",
          "name": "",
          "type": "address"
        }
      ],
      "name": "candidates",
      "outputs": [
        {
          "internalType": "uint256",
          "name": "candidateId",
          "type": "uint256"
        },
        {
          "internalType": "string",
          "name": "age",
          "type": "string"
        },
        {
          "internalType": "string",
          "name": "name",
          "type": "string"
        },
        {
          "internalType": "string",
          "name": "image",
          "type": "string"
        },
        {
          "internalType": "uint256",
          "name": "voteCount",
          "type": "uint256"
        },
        {
          "internalType": "address",
          "name": "_address",
          "type": "address"
        },
        {
          "internalType": "string",
          "name": "ipfs",
          "type": "string"
        }
      ],
      "stateMutability": "view",
      "type": "function"
    },
    {
      "inputs": [],
      "name": "getCandidate",
      "outputs": [
        {
          "internalType": "address[]",
          "name": "",
          "type": "address[]"
        }
      ],
      "stateMutability": "view",
      "type": "function"
    },
    {
      "inputs": [
        {
          "internalType": "address",
          "name": "_address",
          "type": "address"
        }
      ],
      "name": "getCandidateData",
      "outputs": [
        {
          "internalType": "string",
          "name": "",
          "type": "string"
        },
        {
          "internalType": "string",
          "name": "",
          "type": "string"
        },
        {
          "internalType": "uint256",
          "name": "",
          "type": "uint256"
        },
        {
          "internalType": "string",
          "name": "",
          "type": "string"
        },
        {
          "internalType": "uint256",
          "name": "",
          "type": "uint256"
        },
        {
          "internalType": "string",
          "name": "",
          "type": "string"
        },
        {
          "internalType": "address",
          "name": "",
          "type": "address"
        }
      ],
      "stateMutability": "view",
      "type": "function"
    },
    {
      "inputs": [],
      "name": "getCandidateLength",
      "outputs": [
        {
          "internalType": "uint256",
          "name": "",
          "type": "uint256"
        }
      ],
      "stateMutability": "view",
      "type": "function"
    },
    {
      "inputs": [],
      "name": "getVotedVotersList",
      "outputs": [
        {
          "internalType": "address[]",
          "name": "",
          "type": "address[]"
        }
      ],
      "stateMutability": "view",
      "type": "function"
    },
    {
      "inputs": [
        {
          "internalType": "address",
          "name": "_address",
          "type": "address"
        }
      ],
      "name": "getVoterData",
      "outputs": [
        {
          "internalType": "uint256",
          "name": "",
          "type": "uint256"
        },
        {
          "internalType": "string",
          "name": "",
          "type": "string"
        },
        {
          "internalType": "string",
          "name": "",
          "type": "string"
        },
        {
          "internalType": "address",
          "name": "",
          "type": "address"
        },
        {
          "internalType": "string",
          "name": "",
          "type": "string"
        },
        {
          "internalType": "uint256",
          "name": "",
          "type": "uint256"
        },
        {
          "internalType": "bool",
          "name": "",
          "type": "bool"
        }
      ],
      "stateMutability": "view",
      "type": "function"
    },
    {
      "inputs": [],
      "name": "getVoterLength",
      "outputs": [
        {
          "internalType": "uint256",
          "name": "",
          "type": "uint256"
        }
      ],
      "stateMutability": "view",
      "type": "function"
    },
    {
      "inputs": [],
      "name": "getVoterList",
      "outputs": [
        {
          "internalType": "address[]",
          "name": "",
          "type": "address[]"
        }
      ],
      "stateMutability": "view",
      "type": "function"
    },
    {
      "inputs": [],
      "name": "isVotingOpen",
      "outputs": [
        {
          "internalType": "bool",
          "name": "",
          "type": "bool"
        }
      ],
      "stateMutability": "view",
      "type": "function"
    },
    {
      "inputs": [],
      "name": "resetVoting",
      "outputs": [],
      "stateMutability": "nonpayable",
      "type": "function"
    },
    {
      "inputs": [
        {
          "internalType": "address",
          "name": "_address",
          "type": "address"
        },
        {
          "internalType": "string",
          "name": "_age",
          "type": "string"
        },
        {
          "internalType": "string",
          "name": "_name",
          "type": "string"
        },
        {
          "internalType": "string",
          "name": "_image",
          "type": "string"
        },
        {
          "internalType": "string",
          "name": "_ipfs",
          "type": "string"
        }
      ],
      "name": "setCandidate",
      "outputs": [],
      "stateMutability": "nonpayable",
      "type": "function"
    },
    {
      "inputs": [
        {
          "internalType": "uint256",
          "name": "_startTime",
          "type": "uint256"
        },
        {
          "internalType": "uint256",
          "name": "_endTime",
          "type": "uint256"
        }
      ],
      "name": "setVotingTime",
      "outputs": [],
      "stateMutability": "nonpayable",
      "type": "function"
    },
    {
      "inputs": [
        {
          "internalType": "address",
          "name": "_candidateAddress",
          "type": "address"
        },
        {
          "internalType": "uint256",
          "name": "_candidateVoteId",
          "type": "uint256"
        }
      ],
      "name": "vote",
      "outputs": [],
      "stateMutability": "nonpayable",
      "type": "function"
    },
    {
      "inputs": [
        {
          "internalType": "uint256",
          "name": "",
          "type": "uint256"
        }
      ],
      "name": "votedVoters",
      "outputs": [
        {
          "internalType": "address",
          "name": "",
          "type": "address"
        }
      ],
      "stateMutability": "view",
      "type": "function"
    },
    {
      "inputs": [
        {
          "internalType": "address",
          "name": "_address",
          "type": "address"
        },
        {
          "internalType": "string",
          "name": "_name",
          "type": "string"
        },
        {
          "internalType": "string",
          "name": "_image",
          "type": "string"
        },
        {
          "internalType": "string",
          "name": "_ipfs",
          "type": "string"
        }
      ],
      "name": "voterRight",
      "outputs": [],
      "stateMutability": "nonpayable",
      "type": "function"
    },
    {
      "inputs": [
        {
          "internalType": "address",
          "name": "",
          "type": "address"
        }
      ],
      "name": "voters",
      "outputs": [
        {
          "internalType": "uint256",
          "name": "voter_voterId",
          "type": "uint256"
        },
        {
          "internalType": "string",
          "name": "voter_name",
          "type": "string"
        },
        {
          "internalType": "string",
          "name": "voter_image",
          "type": "string"
        },
        {
          "internalType": "address",
          "name": "voter_address",
          "type": "address"
        },
        {
          "internalType": "uint256",
          "name": "voter_allowed",
          "type": "uint256"
        },
        {
          "internalType": "bool",
          "name": "voter_voted",
          "type": "bool"
        },
        {
          "internalType": "uint256",
          "name": "voter_vote",
          "type": "uint256"
        },
        {
          "internalType": "string",
          "name": "voter_ipfs",
          "type": "string"
        }
      ],
      "stateMutability": "view",
      "type": "function"
    },
    {
      "inputs": [
        {
          "internalType": "uint256",
          "name": "",
          "type": "uint256"
        }
      ],
      "name": "votersAddress",
      "outputs": [
        {
          "internalType": "address",
          "name": "",
          "type": "address"
        }
      ],
      "stateMutability": "view",
      "type": "function"
    },
    {
      "inputs": [],
      "name": "votingEndTime",
      "outputs": [
        {
          "internalType": "uint256",
          "name": "",
          "type": "uint256"
        }
      ],
      "stateMutability": "view",
      "type": "function"
    },
    {
      "inputs": [],
      "name": "votingOrganizer",
      "outputs": [
        {
          "internalType": "address",
          "name": "",
          "type": "address"
        }
      ],
      "stateMutability": "view",
      "type": "function"
    },
    {
      "inputs": [],
      "name": "votingStartTime",
      "outputs": [
        {
          "internalType": "uint256",
          "name": "",
          "type": "uint256"
        }
      ],
      "stateMutability": "view",
      "type": "function"
    }
  ],
  "bytecode": "0x608060405234801561001057600080fd5b5033600260006101000a81548173ffffffffffffffffffffffffffffffffffffffff021916908373ffffffffffffffffffffffffffffffffffffffff160217905550612f91806100616000396000f3fe608060405234801561001057600080fd5b506004361061014d5760003560e01c80637831ffb3116100c3578063a78cb8311161007c578063a78cb831146103cf578063b28d92ae146103eb578063b9be315214610409578063c91ec71214610427578063f7522a8314610443578063fa7f1bae146104615761014d565b80637831ffb3146102d4578063856e698c146103045780638ab66a901461030e5780638fb4cd8014610344578063a3ec138d1461037a578063a7388967146103b15761014d565b80632a466ac7116101155780632a466ac7146101e65780633a88251a1461021c57806343242daa1461024c5780635cc48aa71461027c5780635f74bbde1461029a57806370218b85146102b65761014d565b80630361419e1461015257806305ad45a41461016e57806313182dce1461018c5780631ea736e0146101aa5780632019a608146101c8575b600080fd5b61016c600480360381019061016791906121e0565b61047f565b005b610176610713565b60405161018391906122b4565b60405180910390f35b610194610720565b6040516101a1919061238d565b60405180910390f35b6101b26107ae565b6040516101bf91906122b4565b60405180910390f35b6101d06107b4565b6040516101dd91906122b4565b60405180910390f35b61020060048036038101906101fb91906123af565b6107ba565b6040516102139796959493929190612473565b60405180910390f35b6102366004803603810190610231919061252a565b610c01565b6040516102439190612557565b60405180910390f35b6102666004803603810190610261919061252a565b610c40565b6040516102739190612557565b60405180910390f35b610284610c7f565b6040516102919190612557565b60405180910390f35b6102b460048036038101906102af9190612572565b610ca5565b005b6102be610e6d565b6040516102cb919061238d565b60405180910390f35b6102ee60048036038101906102e9919061252a565b610efb565b6040516102fb9190612557565b60405180910390f35b61030c610f3a565b005b610328600480360381019061032391906123af565b611268565b60405161033b97969594939291906125b2565b60405180910390f35b61035e600480360381019061035991906123af565b6114ea565b6040516103719796959493929190612658565b60405180910390f35b610394600480360381019061038f91906123af565b6118b2565b6040516103a89897969594939291906126dc565b60405180910390f35b6103b9611abf565b6040516103c691906122b4565b60405180910390f35b6103e960048036038101906103e4919061276f565b611acb565b005b6103f3611baf565b604051610400919061238d565b60405180910390f35b610411611c3d565b60405161041e91906122b4565b60405180910390f35b610441600480360381019061043c91906127af565b611c49565b005b61044b611ecb565b60405161045891906122b4565b60405180910390f35b610469611ed8565b604051610476919061289a565b60405180910390f35b3373ffffffffffffffffffffffffffffffffffffffff16600260009054906101000a900473ffffffffffffffffffffffffffffffffffffffff1673ffffffffffffffffffffffffffffffffffffffff161461050f576040517f08c379a000000000000000000000000000000000000000000000000000000000815260040161050690612927565b60405180910390fd5b6105196000611ef3565b60006105256000611f09565b90506000600760008773ffffffffffffffffffffffffffffffffffffffff1673ffffffffffffffffffffffffffffffffffffffff1681526020019081526020016000209050600081600401541461057b57600080fd5b600181600401819055508481600101908051906020019061059d929190611f24565b50838160020190805190602001906105b6929190611f24565b50858160030160006101000a81548173ffffffffffffffffffffffffffffffffffffffff021916908373ffffffffffffffffffffffffffffffffffffffff1602179055508181600001819055506103e8816006018190555060008160050160006101000a81548160ff02191690831515021790555082816007019080519060200190610643929190611f24565b506006869080600181540180825580915050600190039060005260206000200160009091909190916101000a81548173ffffffffffffffffffffffffffffffffffffffff021916908373ffffffffffffffffffffffffffffffffffffffff16021790555080600001547ff5f39971dd62d9929e3a9feaa6bb77fe7c7da0001babff8a65a7e51ad0201c1986868985600401548660050160009054906101000a900460ff168760060154886007016040516107039796959493929190612a3d565b60405180910390a2505050505050565b6000600680549050905090565b606060058054806020026020016040519081016040528092919081815260200182805480156107a457602002820191906000526020600020905b8160009054906101000a900473ffffffffffffffffffffffffffffffffffffffff1673ffffffffffffffffffffffffffffffffffffffff168152602001906001019080831161075a575b5050505050905090565b60095481565b60085481565b60608060006060600060606000600460008973ffffffffffffffffffffffffffffffffffffffff1673ffffffffffffffffffffffffffffffffffffffff168152602001908152602001600020600101600460008a73ffffffffffffffffffffffffffffffffffffffff1673ffffffffffffffffffffffffffffffffffffffff168152602001908152602001600020600201600460008b73ffffffffffffffffffffffffffffffffffffffff1673ffffffffffffffffffffffffffffffffffffffff16815260200190815260200160002060000154600460008c73ffffffffffffffffffffffffffffffffffffffff1673ffffffffffffffffffffffffffffffffffffffff168152602001908152602001600020600301600460008d73ffffffffffffffffffffffffffffffffffffffff1673ffffffffffffffffffffffffffffffffffffffff16815260200190815260200160002060040154600460008e73ffffffffffffffffffffffffffffffffffffffff1673ffffffffffffffffffffffffffffffffffffffff168152602001908152602001600020600601600460008f73ffffffffffffffffffffffffffffffffffffffff1673ffffffffffffffffffffffffffffffffffffffff16815260200190815260200160002060050160009054906101000a900473ffffffffffffffffffffffffffffffffffffffff168680546109c490612976565b80601f01602080910402602001604051908101604052809291908181526020018280546109f090612976565b8015610a3d5780601f10610a1257610100808354040283529160200191610a3d565b820191906000526020600020905b815481529060010190602001808311610a2057829003601f168201915b50505050509650858054610a5090612976565b80601f0160208091040260200160405190810160405280929190818152602001828054610a7c90612976565b8015610ac95780601f10610a9e57610100808354040283529160200191610ac9565b820191906000526020600020905b815481529060010190602001808311610aac57829003601f168201915b50505050509550838054610adc90612976565b80601f0160208091040260200160405190810160405280929190818152602001828054610b0890612976565b8015610b555780601f10610b2a57610100808354040283529160200191610b55565b820191906000526020600020905b815481529060010190602001808311610b3857829003601f168201915b50505050509350818054610b6890612976565b80601f0160208091040260200160405190810160405280929190818152602001828054610b9490612976565b8015610be15780601f10610bb657610100808354040283529160200191610be1565b820191906000526020600020905b815481529060010190602001808311610bc457829003601f168201915b505050505091509650965096509650965096509650919395979092949650565b60038181548110610c1157600080fd5b906000526020600020016000915054906101000a900473ffffffffffffffffffffffffffffffffffffffff1681565b60068181548110610c5057600080fd5b906000526020600020016000915054906101000a900473ffffffffffffffffffffffffffffffffffffffff1681565b600260009054906101000a900473ffffffffffffffffffffffffffffffffffffffff1681565b6000600760003373ffffffffffffffffffffffffffffffffffffffff1673ffffffffffffffffffffffffffffffffffffffff16815260200190815260200160002090508060050160009054906101000a900460ff1615610d3a576040517f08c379a0000000000000000000000000000000000000000000000000000000008152600401610d3190612b0d565b60405180910390fd5b600081600401541415610d82576040517f08c379a0000000000000000000000000000000000000000000000000000000008152600401610d7990612b79565b60405180910390fd5b60018160050160006101000a81548160ff0219169083151502179055508181600601819055506005339080600181540180825580915050600190039060005260206000200160009091909190916101000a81548173ffffffffffffffffffffffffffffffffffffffff021916908373ffffffffffffffffffffffffffffffffffffffff1602179055508060040154600460008573ffffffffffffffffffffffffffffffffffffffff1673ffffffffffffffffffffffffffffffffffffffff1681526020019081526020016000206004016000828254610e619190612bc8565b92505081905550505050565b60606003805480602002602001604051908101604052809291908181526020018280548015610ef157602002820191906000526020600020905b8160009054906101000a900473ffffffffffffffffffffffffffffffffffffffff1673ffffffffffffffffffffffffffffffffffffffff1681526020019060010190808311610ea7575b5050505050905090565b60058181548110610f0b57600080fd5b906000526020600020016000915054906101000a900473ffffffffffffffffffffffffffffffffffffffff1681565b3373ffffffffffffffffffffffffffffffffffffffff16600260009054906101000a900473ffffffffffffffffffffffffffffffffffffffff1673ffffffffffffffffffffffffffffffffffffffff1614610fca576040517f08c379a0000000000000000000000000000000000000000000000000000000008152600401610fc190612c90565b60405180910390fd5b60005b6003805490508110156110ea57600060038281548110610ff057610fef612cb0565b5b9060005260206000200160009054906101000a900473ffffffffffffffffffffffffffffffffffffffff169050600460008273ffffffffffffffffffffffffffffffffffffffff1673ffffffffffffffffffffffffffffffffffffffff1681526020019081526020016000206000808201600090556001820160006110759190611faa565b6002820160006110859190611faa565b6003820160006110959190611faa565b60048201600090556005820160006101000a81549073ffffffffffffffffffffffffffffffffffffffff02191690556006820160006110d49190611faa565b50505080806110e290612cdf565b915050610fcd565b50600360006110f99190611fea565b60005b6006805490508110156112255760006006828154811061111f5761111e612cb0565b5b9060005260206000200160009054906101000a900473ffffffffffffffffffffffffffffffffffffffff169050600760008273ffffffffffffffffffffffffffffffffffffffff1673ffffffffffffffffffffffffffffffffffffffff1681526020019081526020016000206000808201600090556001820160006111a49190611faa565b6002820160006111b49190611faa565b6003820160006101000a81549073ffffffffffffffffffffffffffffffffffffffff021916905560048201600090556005820160006101000a81549060ff0219169055600682016000905560078201600061120f9190611faa565b505050808061121d90612cdf565b9150506110fc565b50600560006112349190611fea565b600660006112429190611fea565b61124c6000611f17565b6112566001611f17565b60006008819055506000600981905550565b600460205280600052604060002060009150905080600001549080600101805461129190612976565b80601f01602080910402602001604051908101604052809291908181526020018280546112bd90612976565b801561130a5780601f106112df5761010080835404028352916020019161130a565b820191906000526020600020905b8154815290600101906020018083116112ed57829003601f168201915b50505050509080600201805461131f90612976565b80601f016020809104026020016040519081016040528092919081815260200182805461134b90612976565b80156113985780601f1061136d57610100808354040283529160200191611398565b820191906000526020600020905b81548152906001019060200180831161137b57829003601f168201915b5050505050908060030180546113ad90612976565b80601f01602080910402602001604051908101604052809291908181526020018280546113d990612976565b80156114265780601f106113fb57610100808354040283529160200191611426565b820191906000526020600020905b81548152906001019060200180831161140957829003601f168201915b5050505050908060040154908060050160009054906101000a900473ffffffffffffffffffffffffffffffffffffffff169080600601805461146790612976565b80601f016020809104026020016040519081016040528092919081815260200182805461149390612976565b80156114e05780601f106114b5576101008083540402835291602001916114e0565b820191906000526020600020905b8154815290600101906020018083116114c357829003601f168201915b5050505050905087565b600060608060006060600080600760008973ffffffffffffffffffffffffffffffffffffffff1673ffffffffffffffffffffffffffffffffffffffff16815260200190815260200160002060000154600760008a73ffffffffffffffffffffffffffffffffffffffff1673ffffffffffffffffffffffffffffffffffffffff168152602001908152602001600020600101600760008b73ffffffffffffffffffffffffffffffffffffffff1673ffffffffffffffffffffffffffffffffffffffff168152602001908152602001600020600201600760008c73ffffffffffffffffffffffffffffffffffffffff1673ffffffffffffffffffffffffffffffffffffffff16815260200190815260200160002060030160009054906101000a900473ffffffffffffffffffffffffffffffffffffffff16600760008d73ffffffffffffffffffffffffffffffffffffffff1673ffffffffffffffffffffffffffffffffffffffff168152602001908152602001600020600701600760008e73ffffffffffffffffffffffffffffffffffffffff1673ffffffffffffffffffffffffffffffffffffffff16815260200190815260200160002060040154600760008f73ffffffffffffffffffffffffffffffffffffffff1673ffffffffffffffffffffffffffffffffffffffff16815260200190815260200160002060050160009054906101000a900460ff1685805461170190612976565b80601f016020809104026020016040519081016040528092919081815260200182805461172d90612976565b801561177a5780601f1061174f5761010080835404028352916020019161177a565b820191906000526020600020905b81548152906001019060200180831161175d57829003601f168201915b5050505050955084805461178d90612976565b80601f01602080910402602001604051908101604052809291908181526020018280546117b990612976565b80156118065780601f106117db57610100808354040283529160200191611806565b820191906000526020600020905b8154815290600101906020018083116117e957829003601f168201915b5050505050945082805461181990612976565b80601f016020809104026020016040519081016040528092919081815260200182805461184590612976565b80156118925780601f1061186757610100808354040283529160200191611892565b820191906000526020600020905b81548152906001019060200180831161187557829003601f168201915b505050505092509650965096509650965096509650919395979092949650565b60076020528060005260406000206000915090508060000154908060010180546118db90612976565b80601f016020809104026020016040519081016040528092919081815260200182805461190790612976565b80156119545780601f1061192957610100808354040283529160200191611954565b820191906000526020600020905b81548152906001019060200180831161193757829003601f168201915b50505050509080600201805461196990612976565b80601f016020809104026020016040519081016040528092919081815260200182805461199590612976565b80156119e25780601f106119b7576101008083540402835291602001916119e2565b820191906000526020600020905b8154815290600101906020018083116119c557829003601f168201915b5050505050908060030160009054906101000a900473ffffffffffffffffffffffffffffffffffffffff16908060040154908060050160009054906101000a900460ff1690806006015490806007018054611a3c90612976565b80601f0160208091040260200160405190810160405280929190818152602001828054611a6890612976565b8015611ab55780601f10611a8a57610100808354040283529160200191611ab5565b820191906000526020600020905b815481529060010190602001808311611a9857829003601f168201915b5050505050905088565b60018060000154905081565b3373ffffffffffffffffffffffffffffffffffffffff16600260009054906101000a900473ffffffffffffffffffffffffffffffffffffffff1673ffffffffffffffffffffffffffffffffffffffff1614611b5b576040517f08c379a0000000000000000000000000000000000000000000000000000000008152600401611b5290612d9a565b60405180910390fd5b808210611b9d576040517f08c379a0000000000000000000000000000000000000000000000000000000008152600401611b9490612e2c565b60405180910390fd5b81600881905550806009819055505050565b60606006805480602002602001604051908101604052809291908181526020018280548015611c3357602002820191906000526020600020905b8160009054906101000a900473ffffffffffffffffffffffffffffffffffffffff1673ffffffffffffffffffffffffffffffffffffffff1681526020019060010190808311611be9575b5050505050905090565b60008060000154905081565b3373ffffffffffffffffffffffffffffffffffffffff16600260009054906101000a900473ffffffffffffffffffffffffffffffffffffffff1673ffffffffffffffffffffffffffffffffffffffff1614611cd9576040517f08c379a0000000000000000000000000000000000000000000000000000000008152600401611cd090612ebe565b60405180910390fd5b611ce36001611ef3565b6000611cef6001611f09565b90506000600460008873ffffffffffffffffffffffffffffffffffffffff1673ffffffffffffffffffffffffffffffffffffffff168152602001908152602001600020905085816001019080519060200190611d4c929190611f24565b5084816002019080519060200190611d65929190611f24565b5081816000018190555083816003019080519060200190611d87929190611f24565b5060008160040181905550868160050160006101000a81548173ffffffffffffffffffffffffffffffffffffffff021916908373ffffffffffffffffffffffffffffffffffffffff16021790555082816006019080519060200190611ded929190611f24565b506003879080600181540180825580915050600190039060005260206000200160009091909190916101000a81548173ffffffffffffffffffffffffffffffffffffffff021916908373ffffffffffffffffffffffffffffffffffffffff16021790555080600001547fd297f12b256bb8485a6013fb5e302017018123e99a0ebb20756c09e1707b4b9087878785600401548660050160009054906101000a900473ffffffffffffffffffffffffffffffffffffffff1687600601604051611eba96959493929190612ede565b60405180910390a250505050505050565b6000600380549050905090565b60006008544210158015611eee57506009544211155b905090565b6001816000016000828254019250508190555050565b600081600001549050919050565b6000816000018190555050565b828054611f3090612976565b90600052602060002090601f016020900481019282611f525760008555611f99565b82601f10611f6b57805160ff1916838001178555611f99565b82800160010185558215611f99579182015b82811115611f98578251825591602001919060010190611f7d565b5b509050611fa6919061200b565b5090565b508054611fb690612976565b6000825580601f10611fc85750611fe7565b601f016020900490600052602060002090810190611fe6919061200b565b5b50565b5080546000825590600052602060002090810190612008919061200b565b50565b5b8082111561202457600081600090555060010161200c565b5090565b6000604051905090565b600080fd5b600080fd5b600073ffffffffffffffffffffffffffffffffffffffff82169050919050565b60006120678261203c565b9050919050565b6120778161205c565b811461208257600080fd5b50565b6000813590506120948161206e565b92915050565b600080fd5b600080fd5b6000601f19601f8301169050919050565b7f4e487b7100000000000000000000000000000000000000000000000000000000600052604160045260246000fd5b6120ed826120a4565b810181811067ffffffffffffffff8211171561210c5761210b6120b5565b5b80604052505050565b600061211f612028565b905061212b82826120e4565b919050565b600067ffffffffffffffff82111561214b5761214a6120b5565b5b612154826120a4565b9050602081019050919050565b82818337600083830152505050565b600061218361217e84612130565b612115565b90508281526020810184848401111561219f5761219e61209f565b5b6121aa848285612161565b509392505050565b600082601f8301126121c7576121c661209a565b5b81356121d7848260208601612170565b91505092915050565b600080600080608085870312156121fa576121f9612032565b5b600061220887828801612085565b945050602085013567ffffffffffffffff81111561222957612228612037565b5b612235878288016121b2565b935050604085013567ffffffffffffffff81111561225657612255612037565b5b612262878288016121b2565b925050606085013567ffffffffffffffff81111561228357612282612037565b5b61228f878288016121b2565b91505092959194509250565b6000819050919050565b6122ae8161229b565b82525050565b60006020820190506122c960008301846122a5565b92915050565b600081519050919050565b600082825260208201905092915050565b6000819050602082019050919050565b6123048161205c565b82525050565b600061231683836122fb565b60208301905092915050565b6000602082019050919050565b600061233a826122cf565b61234481856122da565b935061234f836122eb565b8060005b83811015612380578151612367888261230a565b975061237283612322565b925050600181019050612353565b5085935050505092915050565b600060208201905081810360008301526123a7818461232f565b905092915050565b6000602082840312156123c5576123c4612032565b5b60006123d384828501612085565b91505092915050565b600081519050919050565b600082825260208201905092915050565b60005b838110156124165780820151818401526020810190506123fb565b83811115612425576000848401525b50505050565b6000612436826123dc565b61244081856123e7565b93506124508185602086016123f8565b612459816120a4565b840191505092915050565b61246d8161205c565b82525050565b600060e082019050818103600083015261248d818a61242b565b905081810360208301526124a1818961242b565b90506124b060408301886122a5565b81810360608301526124c2818761242b565b90506124d160808301866122a5565b81810360a08301526124e3818561242b565b90506124f260c0830184612464565b98975050505050505050565b6125078161229b565b811461251257600080fd5b50565b600081359050612524816124fe565b92915050565b6000602082840312156125405761253f612032565b5b600061254e84828501612515565b91505092915050565b600060208201905061256c6000830184612464565b92915050565b6000806040838503121561258957612588612032565b5b600061259785828601612085565b92505060206125a885828601612515565b9150509250929050565b600060e0820190506125c7600083018a6122a5565b81810360208301526125d9818961242b565b905081810360408301526125ed818861242b565b90508181036060830152612601818761242b565b905061261060808301866122a5565b61261d60a0830185612464565b81810360c083015261262f818461242b565b905098975050505050505050565b60008115159050919050565b6126528161263d565b82525050565b600060e08201905061266d600083018a6122a5565b818103602083015261267f818961242b565b90508181036040830152612693818861242b565b90506126a26060830187612464565b81810360808301526126b4818661242b565b90506126c360a08301856122a5565b6126d060c0830184612649565b98975050505050505050565b6000610100820190506126f2600083018b6122a5565b8181036020830152612704818a61242b565b90508181036040830152612718818961242b565b90506127276060830188612464565b61273460808301876122a5565b61274160a0830186612649565b61274e60c08301856122a5565b81810360e0830152612760818461242b565b90509998505050505050505050565b6000806040838503121561278657612785612032565b5b600061279485828601612515565b92505060206127a585828601612515565b9150509250929050565b600080600080600060a086880312156127cb576127ca612032565b5b60006127d988828901612085565b955050602086013567ffffffffffffffff8111156127fa576127f9612037565b5b612806888289016121b2565b945050604086013567ffffffffffffffff81111561282757612826612037565b5b612833888289016121b2565b935050606086013567ffffffffffffffff81111561285457612853612037565b5b612860888289016121b2565b925050608086013567ffffffffffffffff81111561288157612880612037565b5b61288d888289016121b2565b9150509295509295909350565b60006020820190506128af6000830184612649565b92915050565b7f596f752068617665206e6f20726967687420746f2070726f766964652061757460008201527f686f72697a6174696f6e20666f7220766f746500000000000000000000000000602082015250565b60006129116033836123e7565b915061291c826128b5565b604082019050919050565b6000602082019050818103600083015261294081612904565b9050919050565b7f4e487b7100000000000000000000000000000000000000000000000000000000600052602260045260246000fd5b6000600282049050600182168061298e57607f821691505b602082108114156129a2576129a1612947565b5b50919050565b60008190508160005260206000209050919050565b600081546129ca81612976565b6129d481866123e7565b945060018216600081146129ef5760018114612a0157612a34565b60ff1983168652602086019350612a34565b612a0a856129a8565b60005b83811015612a2c57815481890152600182019150602081019050612a0d565b808801955050505b50505092915050565b600060e0820190508181036000830152612a57818a61242b565b90508181036020830152612a6b818961242b565b9050612a7a6040830188612464565b612a8760608301876122a5565b612a946080830186612649565b612aa160a08301856122a5565b81810360c0830152612ab381846129bd565b905098975050505050505050565b7f596f75206861766520616c726561647920766f74656400000000000000000000600082015250565b6000612af76016836123e7565b9150612b0282612ac1565b602082019050919050565b60006020820190508181036000830152612b2681612aea565b9050919050565b7f596f752068617665206e6f20726967687420746f20766f746500000000000000600082015250565b6000612b636019836123e7565b9150612b6e82612b2d565b602082019050919050565b60006020820190508181036000830152612b9281612b56565b9050919050565b7f4e487b7100000000000000000000000000000000000000000000000000000000600052601160045260246000fd5b6000612bd38261229b565b9150612bde8361229b565b9250827fffffffffffffffffffffffffffffffffffffffffffffffffffffffffffffffff03821115612c1357612c12612b99565b5b828201905092915050565b7f4f6e6c7920746865206f7267616e697a65722063616e2072657365742074686560008201527f20766f74696e6700000000000000000000000000000000000000000000000000602082015250565b6000612c7a6027836123e7565b9150612c8582612c1e565b604082019050919050565b60006020820190508181036000830152612ca981612c6d565b9050919050565b7f4e487b7100000000000000000000000000000000000000000000000000000000600052603260045260246000fd5b6000612cea8261229b565b91507fffffffffffffffffffffffffffffffffffffffffffffffffffffffffffffffff821415612d1d57612d1c612b99565b5b600182019050919050565b7f4f6e6c79206f7267616e697a65722063616e207365742074686520766f74696e60008201527f672074696d650000000000000000000000000000000000000000000000000000602082015250565b6000612d846026836123e7565b9150612d8f82612d28565b604082019050919050565b60006020820190508181036000830152612db381612d77565b9050919050565b7f53746172742074696d65206d757374206265206265666f726520656e6420746960008201527f6d65000000000000000000000000000000000000000000000000000000000000602082015250565b6000612e166022836123e7565b9150612e2182612dba565b604082019050919050565b60006020820190508181036000830152612e4581612e09565b9050919050565b7f596f752068617665206e6f20617574686f72697a6174696f6e20746f2073657460008201527f2043616e64696461746500000000000000000000000000000000000000000000602082015250565b6000612ea8602a836123e7565b9150612eb382612e4c565b604082019050919050565b60006020820190508181036000830152612ed781612e9b565b9050919050565b600060c0820190508181036000830152612ef8818961242b565b90508181036020830152612f0c818861242b565b90508181036040830152612f20818761242b565b9050612f2f60608301866122a5565b612f3c6080830185612464565b81810360a0830152612f4e81846129bd565b905097965050505050505056fea2646970667358221220d6ac810354a1ecc6ad5c01d298a5228b6660e020484708239dade6e4ba346fe264736f6c63430008090033",
  "linkReferences": {},
  "deployedLinkReferences": {}
}